:020000040000fa
:080000000002040000000000f2
:020000040000fa
:100400000f6022000eff27000e0188000000000090
:100410000c00070080442200010020000f000700ac
:10042000000020000000e000020032000000020096
:1004300000000000921b0200000000000040da00f3
:100440000000fe00c06320000000e0000200320057
:10045000002020009001880000000600a102880012
:10046000800078000000eb001a003700e2804000b6
:1004700054a0b4009101ba00e280400054a0b4003e
:100480009102ba00e280400054a0b4000002eb00e8
:10049000472bde00f507b200a6018800602ce100c2
:1004a00008003a000049eb000201e80002003900b0
:1004b0003420ec0002f0a0008301e900f9ff3e00c7
:1004c000040037006128e100010032000082eb00e7
:1004d000040007001101ba000200e000e3ff3a0047
:1004e0000000060004d0a300e20f49001c00390000
:1004f000810278003549ba000201e80002003900a3
:100500003420ec0002f0a0008301e9000f0032006b
:100510002549ba000201e800020039003420ec004d
:1005200002f0a0008301e900080032000400e000ae
:100530000600320015c9ba000201e80002003900c5
:100540003420ec0002f0a0008301e9008180e80083
:1005500054a0b4000300e000e2ff3a0000000600ef
:100560009102ba00055978008301e900f7ff3200d3
:10057000c82ade00055978008301e900f3ff320044
:100580000400e000f1ff320011d9ba00eeff37009d
:10059000889fbe0080047800f0f880000000e00032
:1005a00003003a00100007000000e0000a003500d8
:1005b000f0f880000900e00002003a000004780032
:1005c000060037000004780009004000060007001c
:1005d0000000e00001003d000084eb00080078000e
:1005e0004f04be0000000600800078000000e0001c
:1005f00004003a0000002200f0f8880001017800b1
:10060000060037000081eb0000602200808f500060
:1006100002003e00f1f888000001eb0002007800c3
:100620000000060010417800b141510003003a007b
:100630000000e8000204e000faff3a000300fb00bb
:10064000000006000400fa00e0bf9f00e4815700ac
:10065000812978000002eb000f0037006fb8970087
:10066000904078007fb89700104078000402e800be
:1006700080cf5000040032008180fb000080fb002e
:1006800000805000070037006fb897000000e800b6
:10069000e0bf9f009309e800820f5200efff3a008d
:1006a0000000eb000080fa00000006008001eb0073
:1006b0000200370061f079008301e800828f510069
:1006c000fcff3a000000060080017800000178007d
:1006d00031407800005978000004e000fcff3a0047
:1006e0000300780000000600800178000001780017
:1006f000010037000201e8001204e000fdff3a00ab
:1007000031407800005978000004e000fcff3a0016
:1007100003007800000006008001eb0002003700b3
:10072000817178008301e800828f5100fcff3a005c
:1007300000000600000378008002780002027800c2
:100740008001eb00080037000402e90063c0780074
:10075000805a78008301e8000004e00002003a00bb
:100760008000eb0006003700828f5100f6ff3a0050
:10077000fbff37000040eb0080f07a008100e800ca
:10078000848f5000fbff3a0006007800000006004e
:10079000800078003004e000feff3a0001005000c5
:1007a0000000e90000000600889fbe008a9fbe008e
:1007b0008c9fbe000001780081ef21001100e00055
:1007c0000b003a00c0ef2100c0f78800a0f78800b6
:1007d000e1f78800b1f78800214090000004a000f4
:1007e000a0409800614090000004a000e040980004
:1007f000e7004100c208de00c20cdd00b4f7800053
:100800000d002200006022000d0550002200200093
:10081000811f7800110009000205d8000006780049
:10082000cf007800c308dd00e48540008001eb00c4
:100830000600220085ef2100010037000102780048
:10084000244090000008a300020032000a00370094
:10085000110a780094007800214090000008a3005d
:10086000fbff320009014200828f50000200390074
:10087000840f51004600310094007800848f5000ae
:10088000eeff3e00868f500002003900858f500039
:10089000eaff3900a0f78000800f52004f003a00b5
:1008a000858f50004d003a008301e800e18f510030
:1008b000e2ff36008c8f5400040036008a8f54000b
:1008c000020031000b04780012003700614ab800c2
:1008d0006151b900b0ff2f0001002000020050005c
:1008e00083805800800f5200818f5a00020035002b
:1008f00009047800070037000d80540032602200a0
:1009000002004000110009000a80d8000a80b900e6
:1009100000047800080078001dff070080017800bf
:10092000e10f40002d003200a0f78000030878009e
:10093000a2f7800064004100a2409000808f510027
:10094000020032000104a000010037000104a100f0
:10095000214198000880410064005000800978001f
:10096000a0f7880082ef210002087800a1f780003c
:10097000214090000004a000a04098002340900077
:100980000004a100a041980002027800a7ff3700f0
:10099000b2f78800828f500009003600920078007c
:1009a00020ef2100a24190000348780081f78800e1
:1009b000140978008040eb00b0f7800021409800d7
:1009c000b0f78000000a7800244090000004a000e6
:1009d0002042980064004200010037000000eb0054
:1009e0004f06be004f05be004f04be0000000600cb
:1009f00064005000b0f78800a04090000104a100fe
:100a00002140980000000600889fbe008a9fbe001b
:100a100000057800e401500013001000c285de00dc
:100a2000234090000008a30004003200b3f78800c0
:100a3000234090000004a100a0419800010078002c
:100a400059ff0700000478000000e00017003200a2
:100a50008a0f50001500320060b89700080050005f
:100a6000c284de00898f55000100360089057800b8
:100a70004259dd008a007800080078000bff07006b
:100a80008a0f5400090031004248dd000000440094
:100a90008a0f5000050036000a0050000000440094
:100aa00082f7800093f780000288be00080078007b
:100ab0004f05be004f04be0000000600febfbf0091
:100ac00002003200d4253700000006003600f8008e
:100ad000809fbe00829fbe00849fbe00869fbe0096
:100ae0008ec0a90082c4bf000068a30012003200bb
:100af00080c4bf000068a3000f0032000004200083
:100b00000024880010df80000000e0000a003200ae
:100b100010df80000000e90010df880010df800097
:100b20000000e00004003a0082c4a900f0de80006a
:100b30000000e800f0de88008cc4bf000068a3005d
:100b40000c0032008ac4bf000068a3000900320014
:100b50008cc4a9000004200050248800f1de80002d
:100b600070005000808f500002003a0000102000fa
:100b700010de88008cc4bf000008a300080032000b
:100b80008ac4bf000008a300050032001000200046
:100b9000502488008c04a9000000eb0010de8800bf
:100ba0008cc4bf000038a300cf0032008ac4bf004d
:100bb0000038a300cc0032008cc4bf000018a30092
:100bc000080032008ac4bf000018a30005003200ec
:100bd00000df80003058900063406000e14f50001b
:100be000c1003a00a0bd21001044a1009224800061
:100bf000800020005024880004df8000a45890006a
:100c0000f0248000ef8060006f006000808f500053
:100c1000b4003a00640061000238a300050032000d
:100c2000c2c021000000e00006003a0082c021009e
:100c30000400370042c021000000e00001003a003b
:100c400002c0210000c0230092006000008020004c
:100c5000808f500037003a00f03f20001201600002
:100c6000040890009408900002004000e0804800d2
:100c7000000a9800110a98000000eb00700a980022
:100c8000344090004300de00610060000004a200d8
:100c90004300dd00b44090000134a10080c070002a
:100ca0003142980004589000f04f50000800320084
:100cb0008458900000c2b30080cf5000040032007e
:100cc000845890007040400080cf500032003a00bd
:100cd0000409900094099000740090000100200025
:100ce000800f5100818f59007e0039006000b800ec
:100cf000000a9800110a98000a00370004099000c1
:100d00009409900054009000e4009000800f51007e
:100d1000818f590073003900344090000004a00016
:100d200030429800045890000040e800005a9800b3
:100d30006c00370000c02000808f5000030032009c
:100d400000c02200808f50001b003a00f03f2000be
:100d50001201600004089000940890000200400016
:100d6000e0804800000a9800110a98000000eb009b
:100d7000700a9800344090004300de00610060007b
:100d80000004a2004300dd00b44090000134a10043
:100d900080c0700031429800345890006340600079
:100da000e14f5000dcff320044009000800f510002
:100db000d9ff3900d1ff370000802200808f50001a
:100dc00021003a00344090000044a00030429800d6
:100dd000740890000000e800700a980034589000f1
:100de00063006000e10f5000cbff320003003c00c5
:100df0000000e000080032003a003700e20f500027
:100e000005003200e30f500036003a0024589000ed
:100e10000004e000c0ff3500344090000058a300fb
:100e200030003200f408900004109000808f5000d1
:100e30002c003600244090000064a000204298005e
:100e400070c1b3000700370000802300808f50007e
:100e50000a003a00244090000054a000204298006c
:100e600010c1b300405a98000458900001cfb3005d
:100e700001406000f040b300acff3700a440900098
:100e80008140e800ffc060002440900002ceb30023
:100e90000240600001407000204298002440900011
:100ea0007f006000f30f50000e00340024409000db
:100eb0000064a0002042980030c1b300405a98005e
:100ec0000458900001cfb30001406000f040b3002f
:100ed000005a9800f00f20007024880020002000a5
:100ee00050248800ae0b07008cc4bf000028a3006c
:100ef0002b0032008ac4bf000028a3002800320063
:100f00004000200050248800a2de80001a00370034
:100f1000220090000000e00016003200a0009000c7
:100f2000043020000310200010003700510890000a
:100f30000030b200840f500002003200830f5000d6
:100f400006003a00310090000000e000030032008b
:100f5000310090000000e900b0009800314090009e
:100f60000044a100b0409800910078000100e0002a
:100f7000eeff3a00120178000200e000e4ff3a00c0
:100f8000a0bd21001004a1001014a1001024a10094
:100f90001034a100c0bd210002487800800b07007a
:100fa0008cc4bf000018a300440032008ac4bf00f4
:100fb0000018a30041003200a0bd21001044a10090
:100fc00003df80003358900063406000e14f500021
:100fd00036003200a34090008140e800ffc060006e
:100fe0002340900002ceb300024060000140700038
:100ff000a0419800234090007f006000f30f500054
:101000002a0034008e44e20002003d0000c2b3001a
:10101000c05998008ec4bf000058a30002003200df
:1010200010c2b300c05998008ec4bf000048a3008e
:101030000200320020c2b300c05998008ec4bf0025
:101040000038a3000200320030c2b300c05998003b
:101050008ec4bf000028a3000200320040c2b300cb
:10106000c05998008ec4bf000018a30002003200cf
:1010700050c2b300c05998008ec4bf000008a3003e
:101080000200320060c2b300c059980023409000b3
:101090000064a000a04198000358900001cfb30065
:1010a00001406000f040b30080599800f00f20002c
:1010b0007024880020002000502488004f03be00c8
:1010c0004f02be004f01be004f00be003600f900c7
:1010d000004006000040da000000fe000000fe00b4
:020000040000fa
:109f000053500000524b000030300000313600004a
:109f1000494f0000494f000030330000313100004c
:020000040000fa
:020000040005f5
:0457f400131c000082
:020000040000fa
:020000040005f5
:0457f8009f09000005
:020000040000fa
:020000040005f5
:0457fc007f3f0000eb
:020000040000fa
:100008006e080000085000000c500000105000005e
:10001800145000006e0800006e0800006e08000012
:10002800185000001c500000205000002450000010
:100038006e080000285000002c50000030500000ce
:1000480034500000385000003c5000004050000080
:1000580044500000485000006e0800006e08000080
:100068004c50000050500000545000005850000000
:100078005c5000006e0800006050000064500000f2
:100088006e080000685000006c50000070500000be
:1000980074500000785000007c5000008050000030
:1000a80084500000885000006e0800006e080000b0
:1000b8006e0800008c500000905000009450000022
:1000c800985000009c500000a0500000a450000070
:1000d800a8500000ac5000006e0800006e08000038
:1000e8006e080000b0500000b45000006e08000018
:1000f8006e080000b8500000bc5000006e080000f8
:100108006e0800006e0800006e0800006e0800000f
:100118006e0800006e080000c05000006e08000065
:100128006e080000c4500000c8500000cc50000009
:100138006e0800006e0800006e0800006e080000df
:10014800d05000006e0800006e0800006e08000025
:100158006e080000d45000006e0800006e08000011
:100168006e080000d8500000dc500000e05000008d
:10017800e4500000e85000005e050000ec5000006c
:10018800f0500000f4500000f8500000fc5000004f
:1001980000510000045100006e0800006e080000c5
:1001a8006e0800006e0800006e0800006e0800006f
:1001b800085100006e0800006e0800006e0800007c
:1001c8006e0800006e0800006e0800006e0800004f
:1001d8006e0800006e0800006e0800006e0800003f
:1001e8006e0800006e0800006e0800006e0800002f
:0801f8006e0800006e08000013
:020000040000fa
:1010e000333000003832000030330000313200006d
:1010f000333000003832000030320000643000002d
:101100006130000030330000303200003031000028
:101110003032000030320000303400003463000010
:10112000646500006666000032370000333000005e
:1011300030620000303600003037000032610000bd
:101140003836000034380000636500003338000092
:101150003034000030330000303500003030000003
:10116000333000003662000033310000306200008e
:1011700033300000303900003036000030330000da
:1011800035350000303400003036000031330000c7
:101190003032000034390000346300003331000085
:1011a0003130000033300000306500003036000080
:1011b0003033000035350000303400003038000096
:1011c000313300003037000035350000366500004f
:1011d00036620000366500003666000037370000d2
:1011e000366500003331000031310000333000003b
:1011f0003066000030360000303300003535000026
:101200003034000030370000313300003038000047
:1012100035340000363500003663000032640000cb
:101220003431000037360000363900003736000010
:1012300033310000306400003330000030620000c1
:101240003036000030330000353500003034000007
:1012500030610000313300003034000034390000c8
:101260003466000034390000346600003331000079
:1012700031300000333000003065000030360000af
:10128000303300003535000030340000306200009b
:10129000313300003037000035350000366500007e
:1012a0003662000036650000366600003737000001
:1012b0003665000033310000313600003330000065
:1012c0003134000030360000303300003535000086
:1012d000303400003033000031330000306400004f
:1012e000353900003734000036310000363900004f
:1012f00032640000343200003635000036650000ec
:101300003264000035340000373300003736000007
:101310003639000033300000323000003137000031
:1013200030640000333100003330000033310000fe
:10133000333100003331000033330000333200001a
:10134000333100003331000033320000333000000d
:10135000333700003561000031380000306600008e
:1013600033320000333100003331000033300000ed
:1013700033310000333000003332000033300000de
:1013800033320000333100003331000033320000cb
:101390003330000033370000356100003330000087
:1013a000366200003331000030620000333000004c
:1013b0003039000030360000303300003535000091
:1013c000303400003036000031330000303200008d
:1013d0003439000034630000333100003130000044
:1013e000333000003065000030360000303300003c
:1013f0003535000030340000303800003133000053
:1014000030370000353500003665000036620000d8
:10141000366500003666000037370000366500008c
:1014200033310000313100003330000030660000fd
:101430003036000030330000353500003034000015
:101440003037000031330000303800003534000000
:10145000363500003663000032640000343100008d
:1014600037360000363900003736000033310000cf
:10147000306400003330000030620000303600007d
:10148000303300003535000030340000306100009a
:10149000313300003034000034390000346600007d
:1014a0003439000034660000333100003130000070
:1014b000333000003065000030360000303300006b
:1014c0003535000030340000306200003133000058
:1014d0003037000035350000366500003662000008
:1014e00036650000366600003737000036650000bc
:1014f0003331000031360000333000003134000059
:101500003036000030330000353500003034000044
:101510003033000031330000306400003539000002
:1015200037340000363100003639000032640000e4
:1015300034320000363500003665000032640000a9
:1015400035340000373300003736000036390000ec
:1015500033300000383200003031000062380000c3
:1015600033300000383200003031000032630000b8
:10157000303600003037000032610000383600009d
:101580003438000063650000333800003034000058
:1015900030310000333000003832000030310000bc
:1015a0003166000030320000383100003831000070
:1015b00030300000666400003766000035330000fc
:1015c000383100003164000037350000313200004e
:1015d00032390000353200006466000034610000da
:1015e0003963000032650000656300006534000067
:1015f00065370000663600003131000062370000b8
:1016000035320000336300006566000034340000aa
:1016100030300000633300003165000033660000a5
:1016200038300000623600003531000032360000ec
:1016300036390000343500003564000034300000d5
:10164000323200003531000066620000353900009a
:101650003364000038640000353800006661000023
:1016600062660000633500006635000062610000bc
:10167000333000006636000063620000396200000b
:101680003535000036630000643700003831000053
:101690003362000038300000316400003334000051
:1016a0003666000066320000363600003630000034
:1016b0006237000036620000393900003530000022
:1016c00061350000613400003966000039660000b1
:1016d000653800003034000037620000313000000f
:1016e00032320000633200003466000062620000a3
:1016f0006139000064370000666500006237000051
:10170000633600003162000066380000336200007a
:10171000353700006537000063360000613800008f
:1017200061360000313500003066000030340000c2
:101730006662000038330000663600006433000043
:101740006335000031650000633300003032000073
:1017500033350000353400003133000035610000be
:1017600031360000393100003332000066360000a7
:10177000373500006633000061650000326200000a
:1017800036310000643700003261000065660000f9
:101790006632000032320000303300003139000080
:1017a000396400006431000034380000303100003a
:1017b0006337000030320000313500003030000067
:1017c0003937000036300000353000003866000040
:1017d00031350000323300003062000063630000e6
:1017e00062320000393200006239000038320000f5
:1017f0006132000065620000383400003062000091
:1018000066300000353800003163000066350000a6
:101810003032000038310000383100003030000034
:101820006637000065310000613000003835000087
:101830006436000039620000336400006465000013
:1018400063620000626300006162000035630000b3
:10185000333600006238000035370000623900007e
:101860003739000039340000616600006262000010
:1018700066610000336100006561000038320000dd
:101880006639000035370000346300003062000024
:101890003364000030370000383200003637000073
:1018a000353100003539000035370000386500005b
:1018b00062610000643400003539000034660000c5
:1018c000653600003731000030370000313000004d
:1018d0003831000038300000623400003439000034
:1018e0003136000037310000323300006538000027
:1018f000346300003238000031360000313300001c
:1019000062370000636600003039000033320000a7
:101910003863000063380000613600006531000064
:101920003363000031360000376100003862000088
:10193000353400003763000038640000323800009e
:101940006530000061330000616500003165000012
:10195000326200006233000061360000373500005b
:101960003931000036650000613300003766000041
:101970003062000066610000323100003335000043
:101980003632000066310000666200003632000028
:101990003761000030310000323400003362000053
:1019a000636300006134000066310000626500007e
:1019b000613800003531000039300000383900004e
:1019c00061380000383300006466000065310000b3
:1019d00035610000653500003966000030360000d2
:1019e00039320000386200003636000035650000ec
:1019f0003830000037620000353500003235000015
:101a000036340000303100003463000033620000df
:101a10006665000063660000343900003261000032
:101a2000303300003831000038350000303000001d
:101a30003032000038310000383100003030000012
:101a400039300000653200003233000034360000c7
:101a500036390000363300003934000062330000ac
:101a60003961000030650000333100003230000081
:101a7000326600003432000033320000656200003c
:101a80006139000035650000346500003731000021
:101a900063370000316300003161000035620000ef
:101aa0003762000033390000303400003235000066
:101ab00030390000646600003838000039660000e4
:101ac0003663000036300000663500003431000017
:101ad00039380000353600003966000066330000f2
:101ae0003135000063300000363000003135000031
:101af00065380000326100003932000038360000dd
:101b000064320000613100006636000032380000a7
:101b100038370000383400003232000063620000c1
:101b20003465000063660000396400006230000024
:101b300031370000333300003533000064620000a9
:101b40006631000034390000343200003464000093
:101b500066610000393300003464000063630000f4
:101b60003765000031380000343500006364000040
:101b70003431000035650000643800006630000034
:101b80003636000035380000316100006162000027
:101b90003865000065330000313400003166000014
:101ba0006139000039340000343900003539000053
:101bb0003762000038650000626400006532000092
:101bc0006561000038650000656500003061000057
:101bd00039650000653600003565000032350000cb
:101be00038370000376200003336000061300000f3
:101bf00030310000393400006234000038620000e7
:101c00003664000062610000633900003332000076
:101c100034630000333300006632000037390000bf
:101c2000326100006432000032650000363200008c
:101c3000373100003538000034640000633700009d
:101c400033300000306200003036000030370000d2
:101c5000326100003836000034380000636500004f
:101c600033380000303400003033000030350000dd
:101c700030300000303300003266000030300000a9
:101c80003330000032630000303200003134000095
:101c90003561000030350000333000003866000048
:101ca00033310000386600003962000062370000fe
:101cb000373800003362000030390000333500004f
:101cc000326400006264000063660000323100008c
:101cd000386300003662000064390000376100009c
:101ce0003032000031340000363400003634000059
:101cf00064380000343400003933000031640000df
:101d000064300000613400003335000039660000a3
:101d10003837000036330000303500003333000020
:101d20003966000034630000656400003061000023
:101d30003461000033350000000000002020000066
:101d4000202000006461000074610000446900000c
:081d5000723d000000000000dc
:020000040000fa
:101d58000200fa00889fbe0010de8000e10f4000fc
:101d68000400320010de8000f0de88000080eb0006
:101d780010de8800f0de800009f020000904600011
:101d880000202000800f54004b01320006003e0066
:101d98000800e0000e00320000102000800f540000
:101da80015033a008100370000402000800f5400de
:101db800c00232000010b000800f5400d802320078
:101dc80000302000800f54000b033a0063013700f5
:101dd800f1de8000010fb200f08f50005000320099
:101de80000022000808f5000520032000100e00005
:101df80001033a0087130700b0de80000808780066
:101e0800b0de800018009800b1de800031409000fc
:101e18000024a000b0409800b1de8000314090005e
:101e28000014a000b0409800b1de8000314090005e
:101e38000054a000b0409800b2de8000201c2000b2
:101e48000011980000042000400198006000b800cc
:101e5800000998001109980028599800b0de800000
:101e680008589800b2de800052089000f1cf2f0089
:101e7800010060005009980080c0eb00b0de8000cf
:101e88001158980031c0b30040be210001487800c5
:101e980080bc21000848780090bc210008487800e0
:101ea800a0bc210008487800c8de8800a8de8800a9
:101eb800d8de880068248800f10f200051248800ab
:101ec800c00820008224b6006f005000002488005b
:101ed800882488007124880000c021004800de00a2
:101ee800c024880081002000a1248800a0002000d0
:101ef800a0248800a1248800000320003024880042
:101f0800200020003025880048258800b824880053
:101f1800aae4a900a004200000258800b102370027
:101f280040bc21001040780061406000b2023200dd
:101f3800ac023700a8ff9f0020c3b300b0ff9f008a
:101f4800240020000500200066815700910620002b
:101f580000c0eb00fc0d07000000e0000f0032009d
:101f680010002000402488008ec0a900f00f2f0028
:101f7800ce20b60000502000ce20b7009ec0a8009a
:101f8800f0de800001ff20000100600070004000ca
:101f9800f0de88008cc4a8009702370040bc2100fe
:101fa8001004a1000001200092023700f1de800039
:101fb800010fb20000022000808f50006300320041
:101fc80005003e000100e0000a003200f08f5000da
:101fd80089023a001200370000032000808f500069
:101fe8009600320070004000808f500082023a0054
:101ff800af003700f0de80006f00600003003200a1
:10200800e20f50007c023a007602370010002000f0
:10201800502488008c04a800b00f20003702370035
:10202800f0de80006f046000e20f540040003200d0
:10203800e40f5400400032000800e0006e023a004d
:10204800f0dd80000000e0000200320066fa0700c0
:10205800f8dd880080002000d1f90700f0dd880055
:102068000000e00012013200a3bc210080bc210066
:102078000848780090bc21000848780082bd2100fb
:10208800c8de880031c0b30050be21000148780086
:10209800d000200050258800682588007825880011
:1020a8008825880098258800a8258800b8258800f4
:1020b800c8258800d8258800e8258800f8258800e4
:1020c80008268800182688002826880038268800d0
:1020d800482688009444e200070035001204a00056
:1020e80000c8b3008049780000082000b0248800a8
:1020f800aae4a800040037001204a1008849780067
:10210800b8248800aae4a9009424a8009424a9006b
:1021180080bd21001044a1001054a1009484a8009f
:102128003003200010df88006d004000f501370003
:102138009484a900ef013700f00020006024880093
:10214800f00f20008024880026023700f0de80008f
:102158006f006000e10f50001400320003003900e6
:10216800e20f500024023a001d003700b0f880004a
:102178000000e000030032001bfa07000000eb003b
:10218800b0f88800f3dd800000c8b300804978000b
:1021980060c0b300904198008040eb00a1419800d6
:1021a80010c0b300b0419800a4003700b1de800031
:1021b800314090000018a3000f0232003140900017
:1021c8000008a3007a013200f0dd80004040900052
:1021d800e94f5000cd013a0050c3b30097013700d2
:1021e800f0dd80001080fb006df9070080007800aa
:1021f800b0f888000000e000ad003200f0dd80009b
:1022080090487800f04090008180fb00b2de8000aa
:1022180041019800f4f907000000eb00f0dd8800a8
:10222800b0de8000400090005df90700f0dd880016
:102238000000e0009e003200af003700f0de8000b2
:102248006f006000e10f50005201320003003900b6
:10225800e20f5000e8013a00a7003700a0bd2100b6
:102268001040780070416000e3013a00f1dd800021
:1022780000c8b3008048780060c0b3009040980060
:10228800a240980010c0b300b0409800c240980027
:10229800d2409800b0f8800010407800e0409800e4
:1022a800f2409800b3f880001382fb00ba003700b0
:1022b8007c0d070025003700f4de8000040fb20013
:1022c800cd013a00f0de80006f006000e10f5000a1
:1022d8003001320003003900e20f5000c6013a0015
:1022e8000f003700b2bc210010c0b30000497800cd
:1022f800f1dd80008448780050c0b3009040980019
:1023080012417800a2409800b4409800c440980058
:10231800d4409800e4409800f4409800f800370052
:1023280080bd210010407800614060000080fb0003
:102338004700dd00b2bc2100a1bc2100924870001a
:1023480031c0b30050be210001487800f0de8000a3
:10235800090060000010b000a6013700f1de80001f
:10236800010fb20000022000808f5000660032008a
:1023780005003e000100e0000d003200f08f500023
:102388009d013a001a00370000042000808f500099
:102398009401320070004000808f5000dd00320050
:1023a80000032000808f500093013a008500370019
:1023b800b1f8800060be210091509000014878007b
:1023c80007003700100490001000780086f9070015
:1023d80090de80000008eb0083f9070098de880093
:1023e80090de80000000e000f6ff3a007d01370033
:1023f800f0de80006f006000e10f5000e500320061
:1024080003003900e20f50007b013a001600370044
:10241800f3dd800000c8b3008049780060c0b300d5
:102428009041980060be21001040e900a04198004a
:1024380020c0b300b04198008040eb00c141980033
:10244800d141980080c0b300e0419800f141980064
:10245800840020000401780083007800b0de80004a
:10246800f60f07002901370060002000ccf80700ac
:10247800000478000000e0000d003200f1dd80006b
:10248800314090004800dd00a14090008180fb00b1
:1024980001004000c2f8070000017800000c780035
:1024a8000000e00004003a00080078004ef9070038
:1024b80030c3b300e1003700f0dd8000b040900089
:1024c800c808dd00204090000080fb0080804000ac
:1024d80021419800c808de003141980091de800053
:1024e8001104980098de8800c2f8880060be2100b8
:1024f800104078004044980031c0b30050be21001d
:102508000148780037013700f0de80006f00600076
:10251800e10f50009f00320003003900e20f500025
:1025280035013a001e003700f1dd800000c8b30015
:102538008048780060c0b3009040980060be2100d9
:102548001040e900a040980020c0b300b0409800b7
:102558000040eb00c0409800d040980090de80001a
:102568001000780020409000e040980090de800045
:102578001000780030409000f040980090de800015
:1025880090017800234090000080fb0033429000c7
:102598004822dd000002720082002000afff3700f1
:1025a80031c0b30050be21000148780060be210050
:1025b8009040e90001487800003120000d013a0000
:1025c80008013700f0de8000ef006000e18f500066
:1025d8003400320005003900e28f50006d003200ef
:1025e800e38f500004013a00c4ff3700b70f07001b
:1025f80080bc2100104178000204e0000f003a007e
:1026080090de80000800370010007800c0f88800cd
:10261800bd0407000000e0001a003a00ab0f0700f5
:1026280000de80001000900000de880000de8000e0
:102638000000e000f4ff3a001200370091de80004d
:1026480001de880001003700910090000100e000e1
:102658000300320041409000824f5000faff3a00d8
:1026680001de880091007800c1f88800a604070000
:10267800000478000000e00002003a00930f070011
:1026880008de880080bd21001040780064406000aa
:102698009e00320000de80000000e000d100320021
:1026a8009a00370080bd21009040780064c1600026
:1026b800cc003a001024a000f1dd800082487800a8
:1026c80032c0b30092409800104078006840600023
:1026d80002003200a24098000200370040c0b30058
:1026e800a04098000040eb00b0409800c04098001f
:1026f800d0409800e0409800f04098000002eb00bd
:102708008401780082002000b0de8000fb0e070004
:102718007e00370002de80000200e00005003a007b
:1027280090de80009000780080bc2100d1409000ad
:1027380001487800f0de80006f006000e10f500073
:102748001400320005003900e20f50001a00320070
:10275800e30f5000a8003a001e003700f1dd8000aa
:102768000041eb008248780090c0b3009040980088
:1027780080bc210010407800a0409800b24098002a
:10278800c2409800d2409800e2409800f240980079
:10279800daff3700b1de8000314090000018a30056
:1027a80095003200314090000008a30057003a001d
:1027b8006a1007009000370040c3b3000200e00031
:1027c8001e00320031c0b30050be2100014878001d
:1027d8004e003700f0de800001f0200001006000ac
:1027e8000010b000f0de880080bd210001c4b300f5
:1027f80010c0600015003200d0bc21009040780065
:102808000180fb004300dd0082ee210082014000d0
:10281800620378008002eb0064bc21002301900071
:10282800b3019000b0bc2100104078000600010000
:102838000000e00070003a0090c3b300c1bc210062
:1028480080487800005020006a003700a8de800029
:1028580015003700f84090000180fb004300dd00c0
:1028680082ee21008201400062037800880278002d
:1028780064bc210023019000b3019000b0bc21008a
:1028880010407800060001000000e00005003a0052
:1028980090c3b300c1bc21008048780000502000dc
:1028a800f0de8800180478000800e000e9ff3a002c
:1028b80051003700f0de8000000fb200f00f50002a
:1028c8004d003a00f0de80006f006000e30f50001a
:1028d80007003200e50f50000f003200e10f5000f2
:1028e80045003a009444a800500120000300370036
:1028f8009444a9009404a800b000200010df8800c8
:10290800000420000024880082c4a800f0de8000b3
:102918000000e80037003700f8de8800360037008e
:10292800f2de8000020fb20033003a00800020007f
:10293800a024880062248800f10f20005124880018
:10294800c00820008224b6006f00500000248800d0
:1029580082248800712488008c04a800c0bc21004f
:102968001041780040c3b300c1c6b300804f510086
:102978001500320007003e008140e800e74f510093
:10298800110032000040e900804f51000b003a006e
:102998000800370051c6b30050c3b300804f510040
:1029a8000900320064404000804f510003003a00a3
:1029b80004003700f1c6b3000300370001c7b300b5
:1029c80001003700e1c6b3008180fb00140020003d
:1029d80005002000e2bc2100b0bc210010407800b6
:1029e800590b0700f0de800001ff200001006000a5
:1029f80070004000f0de88004f04be000080fa003e
:042a080000000600c4
:020000040000fa
:102a0c008000eb00318098000180980000000600e7
:102a1c00881f780000047800010178008080900005
:102a2c00010040000048eb0038809000e30f50009c
:102a3c002000320005003e000000e0000a003200d9
:102a4c00e10f500023003a000e003700e70f500052
:102a5c0005003200e90f50001b003200e40f50005b
:102a6c001c003a0016003700888090000100e0003e
:102a7c0018003200420190000800780002000100aa
:102a8c00140037000100e00005003200288090009f
:102a9c000000e0000f003a00920078000b003700b5
:102aac005200900000000100b0002000308498001b
:102abc0008003700920090000000eb000400370083
:102acc00a2009000010037009200900008007800ee
:102adc00010001000000eb00008498004f04780016
:102aec0000000600889fbe008a9fbe008c9fbe001f
:102afc000006be0082047800030578008005eb0018
:102b0c00040137006b447e0089809000e0072000b0
:102b1c00808f50000d0034000200e00002003200f3
:102b2c00e70f510004003a008a0078000900780091
:102b3c00b7ff0700050037005a00900000000100a5
:102b4c00b0002000b0849800ff003700398090005e
:102b5c0001002000ea0f5000e08f5800ec003e000e
:102b6c00006001000a003700130037003a003700fc
:102b7c005f003700680037007e00370088003700a0
:102b8c009d003700b1003700bc003700d70037007c
:102b9c00c0c3b300804f5400cf003a008a007800c5
:102bac00090078009aff070010002000b0849800fc
:102bbc000000eb002600370000c2b300804f540029
:102bcc001200320007003c00e94f5400c2003500ef
:102bdc00ea4f54000d003400ed4f5400be003a0093
:102bec000a003700e0c3b300804f5400b600320037
:102bfc000040e800804f540011003200704050003b
:102c0c00804f5400b4003a00040037008a0078006a
:102c1c00090078007eff07008a00370009809000c9
:102c2c000000e000040032008a00780009007800ff
:102c3c0077ff07002600370090002000b300370014
:102c4c00098090000000e000a3003a001000200072
:102c5c00a0849800ae00370000c2b300804f54002f
:102c6c00ab00320007003c00e94f54001a0035005d
:102c7c00ea4f5400a6003400ed4f540016003a0001
:102c8c00a3003700e0c3b300804f540007003200ac
:102c9c000040e800804f54000800320070405000a3
:102cac00804f54000c003a00090037002980900036
:102cbc000000e00095003200910037002980900060
:102ccc000000e0008e003200a00020008f003700d2
:102cdc00300020008d003700098090008874780047
:102cec000000e80080849800400020008700370036
:102cfc00ed4f5400860032005700340000c2b30080
:102d0c00804f5400820032007e404000804f5400bf
:102d1c007b003a006c003700ed4f54000c00320081
:102d2c0004003c0069405400e14f50006a003e0032
:102d3c000700370000c2b300804f5400040032007b
:102d4c007d404000804f540063003a00050037007e
:102d5c008a007800090078002dff07005000200041
:102d6c006a0037008a0078000900780028ff070005
:102d7c0009003700ed4f5400650032003600340076
:102d8c0000c2b300804f5400610032007d4040000f
:102d9c00804f54005a003a00600020005b0037005e
:102dac00ed4f54005a0032002b00340020c2b30007
:102dbc00804f54000700320065404000804f5400a3
:102dcc000800320067405000804f54004c003a001d
:102ddc004f00370070002000b08498000000eb001a
:102dec000300370070002000b08498001000200011
:102dfc00908498004600370020c2b300804f5400e6
:102e0c000400320065404000804f540032003a000c
:102e1c0004003700198090000000e0002e003a00fa
:102e2c0003003700198090000000e0002a003200f7
:102e3c008a00780009007800f5fe07003a0090003f
:102e4c00000001002000200030003700ed4f54003e
:102e5c002f00320004003c0069405400e14f500048
:102e6c0027003e002a00370000c2b300804f5400f8
:102e7c00270032007e4040001d003700ed4f54000b
:102e8c000c00320004003c0069405400e14f50003b
:102e9c0011003e000700370000c2b300804f540001
:102eac00040032007e404000804f54000a003a007b
:102ebc00050037008a00780009007800d4fe07006e
:102ecc0080002000110037008a007800090078008b
:102edc00cffe070008003700098090008874780046
:102eec000000e8008084980009003700e0c3b300bc
:102efc00804f540002003a000000eb000300370042
:102f0c005a00900000000100b0002000b08498002e
:102f1c008b05e8008d8f550003003200398190003d
:102f2c00eb0f5100f7fe3a00398090000000e000f2
:102f3c0002003200e70f500003003a008a007800cc
:102f4c0009007800b2fe07004f06be004f05be0018
:082f5c004f04be000000060056
:020000040000fa
:102f64001200fa00889fbe008a9fbe008c9fbe009c
:102f740050d78000e10f5000a2003600f0f6800028
:102f84000008a30003003a00b20d07008000eb0024
:102f94002e01370075070700c0c180000000e00063
:102fa4009800320070825700fe81570074815700e8
:102fb400f88057007c805700350e0700e20f500060
:102fc40090003200e10f500002003a000000eb00d4
:102fd400230037000fbe97009fbe97006fb3970082
:102fe400ffb397004fb59700dfb597009fb49700e4
:102ff40006047800f80fb2002fb29700bfb2970012
:103004007025250041552400800f5200818f5a00fd
:103014005500320006003e0030c42400315524001f
:10302400800f5200818f5a0075003a002e0037003d
:1030340030e4240081e52400800f5200818f5a007f
:1030440006003200f0b4240011942500800f5200d1
:10305400818f5a006a003a000300370030002000d4
:1030640050d7880066003700e70f540064003e0024
:103074006005200000c0b900000178008004b000a1
:10308400a383210003004000b00f1300a08f1b0096
:103094005b003a0063007900e20f500004003a003c
:1030a400030041006a2098007b2098000b00370041
:1030b400e40f500052003a00c00420000200400017
:1030c40003004000b00f1500a08f1d004c003a0013
:1030d4000280e8008000eb0081317800300020009d
:1030e4008031790046003700e70f540044003e0069
:1030f4006005200000c0b900000478008004b0001e
:10310400a983210009004000b00f1300a08f1b0009
:103114003b003a00e9007c00e28f500006003200d8
:1031240065805000e10f50000300360063805000ba
:10313400e10f500032003e0022052000080141004a
:103144004005200008004000e90078006902790089
:103154006011b8000000eb00040001000000eb0067
:1031640080347c0026003700e70f540024003e0022
:103174006005200000c0b900800078008004b00021
:10318400a483210004004000b00f1300a08f1b0093
:103194001b003a00c004200001004000040040006d
:1031a400b00f1500a08f1d0015003a006480780050
:1031b400e40f50000c003e00e00f5600e08f5e006c
:1031c40009003200220520000101410040052000d1
:1031d40001004000e4007800640279000c01be00a4
:1031e40009007800040001006005200000c0b90057
:1031f4000005b00013002000a283210003317800f1
:103204004e0f070058d78000e10f5400040032002d
:1032140041003900e30f540087003a0016003700dc
:10322400f0f680000008a300830032009c0f070022
:10323400c8c18800a50f070000f0210053f507005e
:103244000000e80001002000809fbe0006f021007d
:1032540004002100050020000200200003102000cb
:1032640030e4240081e52400bc0c07002000200089
:1032740050d788006f0037005b0f0700e20f500043
:103284006d003200e10f500003003a000000eb0033
:1032940050d7880068003700b2c180008300200046
:1032a4000201e800e80f510001003a000001eb00c0
:1032b4006b0520000b90b90080047800aa832100dc
:1032c400ea0078000100e0000f003200e18f5000b6
:1032d4004400320000052000090040006a03780021
:1032e4000600e0000f003a00e58f50001e00320097
:1032f400e38f500004003a000980e8006a03780074
:103304000600e00027003a008301e900e4ff3a00e8
:10331400b2c1880048003700ce0c07008080eb0063
:103324004a003700b2c188000a8044006011b80026
:10333400829fbe000003eb0060229000f022900008
:1033440040219000d0219000f0b424001194250075
:10335400820c0700b0c180000b80b9000005b000ea
:103364000001eb0032003700b2c188000a8044003b
:103374006022b800849fbe0060229000f02290007a
:1033840040219000d021900030c424003155240005
:10339400720c0700b0c180000b80b90062002000ed
:1033a40023003700b2c188008a80440021029000c3
:1033b400b1029000849fbe0061229000f12290002f
:1033c40041219000d1219000702525004155240011
:1033d400620c0700b0c180000b80b90042002000dd
:1033e40013003700b2c18800688444000a04440012
:1033f4008904b0008a84440008007800e3f40700dc
:103404000000e80001002000809fbe00080378004f
:103414006022b8001901be00f004250051e4240024
:103424004e0c0700b0c180000b80b90022002000c0
:1034340002357800e48757008000eb0050d7800005
:10344400e20f500001003600110020000100780056
:103454004f06be004f05be004f04be000080fa00b8
:04346400000006005e
:020000040000fa
:10346800889fbe008a1f780008702a002900200063
:103478000ae321000800be007a0807000001be0028
:103488009a4f100010003a009a4090000a85e80010
:103498004810de0080cf50000b003a000300e00027
:1034a80009003a0062044400e0844c0000712a00dc
:1034b80021002000800f5400818f5c00edff3a004e
:1034c80010002000010037000000eb004f057800d5
:1034d8004f04be000000060000402a002100200022
:1034e80008083700889fbe008a1f780008702a00e5
:1034f800290020000ae321006011b8001a81fb00ae
:103508001a4090004800dd00f20fb200000171007f
:103518000a85e8000800be00110807000000e00066
:103528000800320062044400e0844c0000712a0064
:1035380021002000800f5400818f5c00eeff3a00cc
:10354800100020004f0578004f04be000000060060
:10355800881f7800800278000000e0001400320024
:1035680004f28000e10f42000e00320070001200e9
:10357800cf80de00800f5100818f590009003e0086
:103588000204780000e32100000042008500780072
:1035980044f4070000f280000004440008f28800a8
:1035a800100037000080eb0000f288000d003700a3
:1035b800e00f5100e08f590008003a0000f2800047
:1035c800f00f500005003a00a5ff07000000e000da
:1035d80002003a007000200001003700a00020001f
:1035e80030ef88004f047800000006000000e0007b
:1035f80006003200820078006b0607000000e00039
:103608000d003a00b000200007003700e00f51001d
:10361800e08f590006003a00cb0607000000e000e2
:10362800030032009000200030ef88000000060000
:10363800b000200030ef880000000600881f7800e6
:1036480000027800010478000000e0000c0032005d
:1036580060f18000e30f500013003a008200780008
:1036680004007800af03070060f18800e30f500002
:103678000d00320018007800510e07000a003700cc
:10368800e00f5100e08f590005003a0060f180001a
:103698000000e00002003a0050002000010037005e
:1036a800a000200030ef88004f04780000000600da
:1036b800881f7800000278000104780030ef80004d
:1036c800e20f500013003a000400e0000f0032003f
:1036d8008200780004007800f308070070f1880081
:1036e80011ef8000810f50000a00320018007800a6
:1036f8001d0e070071f18000e0f88000808f5000f7
:10370800040032003000200001003700a000200033
:1037180030ef88004f04780000000600ee62a80031
:10372800ec62a800e862a900d3070700d7070700e2
:103738000001780030ef8000eb0f500006003a00df
:1037480020ef8000cd80de00e1c060000000e800ce
:1037580020ef8800060037000200ea00020070002f
:10376800cf00de0010c0b3008140500080c0600070
:10377800e1c06000c308dd00ecc2bf000034a10056
:1037880001407000ece2b7000200e00001003a00de
:1037980032ef880030ef8000e50f50003e00320025
:1037a80006003e00e10f5000150032000a00390003
:1037b800e30f5000ddff3a001e003700e90f50000c
:1037c80046003200ea0f500049003200e70f50006f
:1037d800d6ff3a00260037000200e000d3ff32008f
:1037e800360e07000000e000020032001000200042
:1037f80001003700a000200030ef8800cbff370021
:10380800010e07000000e000c8ff320010ef800042
:1038180070f18800a008070082e22100c1b52100ec
:10382800c0d721006008070040f188002000200070
:10383800f1ff37000000eb0000f2880071f1800012
:1038480080de21009ef30700f1d9210080de2100ef
:10385800a3f30700a2e22100c1aa210080de210013
:10386800f209070050f1880060002000e2ff3700ed
:103878003000200060f1880024030700a2e2210044
:1038880021b2210020db2100e809070050f188005f
:1038980040002000d8ff37000fff07000000e000bd
:1038a80011003200b405070071f1800080de2100ac
:1038b80083f30700c1dc210080de210088f30700c4
:1038c800a2e22100a1af210080de2100d709070074
:1038d80050f1880080002000c7ff370001ff070073
:1038e8000000e000c3ff3a00b0002000c2ff37002c
:1038f8009407070010002000f0ff88000050040023
:083908000000000089ff3700f8
:020000040000fa
:10391000f0874700889fbe008a9fbe008c9fbe0034
:103920008e1f7800c2f88000acde800080bd2100d0
:103930001014a1001024a00012447800a2409000ae
:103940008180fb00324090004800dd008080400014
:10395000c1b79f0052409000b0ef9f000249900015
:10396000e2ef9f007b815700efe89700114198003c
:103970000049eb00240020000500200091062000f3
:1039800000c0eb00720707000001eb000000e00040
:1039900004003a0081c2b300c0bc21000148780095
:1039a000120020008880fb00c0f880008084400066
:1039b000010578000040eb00a0ef9f00b600370043
:1039c00099467800194090008980e800e94f50003e
:1039d0000f003a0082bd21001214a000914078002f
:1039e00090bc2100014878000118a30005003200b6
:1039f0009240780068c06000020032001224a100ea
:103a0000a800370080bd21001034a100a5003700b8
:103a1000e44f5000a3003a009145780039409000ef
:103a200080f79f00c9409000f1ef9f00594090003f
:103a3000d0ef9f00e9409000c1ef9f0079479000d0
:103a4000e884440080bd210001c4b30010c06000c0
:103a500004003200d0bc210010407800c0e79f0075
:103a600007003700fc8157000e417800cfe897002f
:103a70005fe89700450807000000e0008900320079
:103a80000c04780001003700180478000800e000fa
:103a900004003200684090008b4f5000faff3a005b
:103aa0001a003700c00020003ff307000004780030
:103ab0008000ea0080807000cf08de0010c0b300f4
:103ac000814050000181fb006b4498004fe097005b
:103ad000704498000000eb00100498002004980047
:103ae0005fe89700004c98004fe89700104c980052
:103af0002e4c98000c0c78000104e000020032000b
:103b00000806780060003700080678006000200092
:103b100025f3070080057800120020000000e00077
:103b2000590032008e0037002b0498000d80fb00f6
:103b300000054500c0f88000800445008040eb008f
:103b4000a1ef9f0048003700994678000984e800fb
:103b500019409000e54f50003f003a00200220003d
:103b600011f30700800178000000e00056003200e9
:103b7000184478002858980039409000b0599800af
:103b8000c94090008180fb00c1019800594090001d
:103b90004800dd0080804000c1019800694090002d
:103ba0000082fb00a40198000001eb009201980044
:103bb000334090000024a000b041980033409000b2
:103bc0000014a000b04198006000b800800998007f
:103bd0009109980082599800cfe097009159980078
:103be000530890000030b20001102000810f5000f7
:103bf00011003a000400e00002003a00100020002a
:103c0000a001980023009000f00f50000200360041
:103c100000012000a0019800230090000000e900ae
:103c2000110020008008dd00a101980033409000c1
:103c30000024a100b041980023009000b00198003a
:103c4000ab00900081097800a30598002fe8970049
:103c50000040e800a0ef9f000d80fb00000545003c
:103c6000c0f8800080044500cfb09700810f550058
:103c7000040031002fe89700ffe89700814f5000c3
:103c8000b1ff39000001eb002fe89700ffe8970033
:103c9000814f50000c003a000200e00006003200a4
:103ca0000a0037000d80fb0000054500c0f88000c9
:103cb000800445000001eb004fb09700800f5500d5
:103cc0003fff390001003700120020000c00e00027
:103cd000210032000200e000160032009c0478004f
:103ce0000b00370098007800110698000300370099
:103cf00090007800210498003df307002800900010
:103d00000000e000faff3a000800780038f30700ee
:103d10001c0490000800e000f2ff3a000c0078005c
:103d200033f307000900e0000b00320009067800b9
:103d3000eaff370080bc2100bfe897000148780007
:103d4000efe897000180fb0070de8800acde8800a1
:103d5000100020000c0037000000eb000a003700c4
:103d600018009000800d78008ff09700a145980012
:103d70000000eb00a00598001b0498000104e0007f
:103d800069ff320069ff37004f0778004f06be0019
:103d90004f05be004f04be000f01b1000000060039
:020000040000fa
:103da000889fbe008a9fbe00f0de8000aabd210071
:103db0009a40780070c06000fc003a001a40780019
:103dc000e14460008005eb006d003a000940780096
:103dd000730607000000e00002003a00800578004a
:103de0006500370002df80000258900080007800f4
:103df000010fb20000022000808f50001f0032002f
:103e000070004000808f500038003200f08f50006a
:103e1000df003a00025890006f006000e10f500090
:103e20000700320003003c000000e0003e003200ca
:103e3000d7003700e20f50004a0032001b00370065
:103e400002089000920890005001980061019800cb
:103e5000324090000034a0003041980090c0b30080
:103e6000c504070000df80002058900091c0b30017
:103e7000da0907001a04a000cc00370002589000ad
:103e80006f006000e20f50000b00320005003c00a4
:103e90000000e00024003200e10f5000bc003a00b6
:103ea000eeff3700e30f50002e003200ef0f5000fe
:103eb000b7003a002b0037000208900092089000eb
:103ec0005001980061019800324090000034a00039
:103ed0003041980010c0b300a704070000df800045
:103ee0002058900011c0b300e1ff37000258900045
:103ef0006f046000e20f5400d1ff320005003c0067
:103f00000800e00008003200e10f5400a0003a0071
:103f10000e003700e30f540012003200ef0f540080
:103f20009b003a000f003700324090000034a1009f
:103f300030419800d0c0b3008f04070000df80003c
:103f400020589000d1c0b300c9ff37000840780066
:103f50008904070000df8000205890008840780026
:103f6000c3ff370009599800324090000014a000a8
:103f7000304198008005eb00a0bd21001004a00096
:103f8000a0bd210010407800624460003a003a0071
:103f900030c0b300020607000000e0003400320029
:103fa00001df80000158900000017800020fb2008c
:103fb00000042000800f5100040032007000400017
:103fc000800f510024003a000e0037000158900085
:103fd0006f006000e10f500018003200ef0f50003a
:103fe000160032000000e0001b003a003100900093
:103ff0000000e00015003a0021009000b000980099
:1040000038003700015890006f006000e10f500049
:104010000a003200ef0f5000080032000000e000fc
:104020000d003a00310090000000e00007003a0067
:1040300021009000b00098003800370088589800a0
:10404000314090000014a000b04098000b00e00048
:1040500002003a00060037001b00200031409000ab
:104060000014a000b04098000040eb008058980079
:10407000a0bd21001014a000a0bd210010407800b8
:104080006844600049003a0020c0b300c40507003e
:104090000000e0003500320001df80000158900090
:1040a00000017800020fb20000082000800f5100cc
:1040b0000400320070004000800f510025003a00db
:1040c0000e003700015890006f006000e10f5000b3
:1040d00019003200ef0f5000170032000000e0001e
:1040e0001c003a0090c0b3002304070000df8000ea
:1040f0002058900091c0b3000d0037000158900087
:104100006f006000e10f50000b003200ef0f500015
:10411000090032000000e0000e003a0010c0b300b9
:104120001504070000df80002058900011c0b30084
:104130002a0907001d003700885898003140900078
:104140000014a000b04098000b00e00002003a000c
:10415000060037001b0020000040eb00805898004c
:10416000314090000014a000b0409800d0bd210064
:104170001004e00003003200c0bd21000048eb0045
:10418000bdff3700a0bd21001034a000070037009c
:104190000040eb0000599800324090000014a0004d
:1041a000304198001b00200073ff37004f05be0010
:0841b0004f04be0000000600f0
:020000040000fa
:1041b80000017800d0eb8000e40f500013003200bb
:1041c80003003e00e30f500037003a0005003700b7
:1041d800e50f50001a003200e70f500032003a0095
:1041e80024003700c0eb80000000e0002e003a00f9
:1041f80081e821000200780008f107000000e000d3
:1042080029003a004000200026003700c0eb80005b
:10421800e10f500024003a0011e921000200780063
:10422800fef00700800078000000e0001e003a0061
:1042380050002000d0eb8800b1eb88001a0037004e
:10424800c0eb8000e20f500017003a00b0eb80008e
:104258000000e0001400320091e92100020078001b
:10426800eef007000000e0000f003a0070002000a8
:104278000c003700c0eb8000e30f50000a003a0042
:10428800b0eb80000000e00007003200e1e9210007
:1042980002007800e1f007000000e00002003a00a8
:1042a80080002000d0eb8800c0eb80000000e80010
:1042b800c0eb880000000600d0eb8000e50f50003e
:1042c8000e00320003003e00e40f50001a003a00ce
:1042d80005003700e70f50000d003200e80f5000ce
:1042e80015003a000f003700c0eb8000e10f5000c6
:1042f80011003a00300020000e003700c0eb8000ab
:10430800e20f50000c003a0040002000090037007e
:10431800c0eb8000e30f500007003a005000200077
:1043280004003700c0eb8000e40f500002003a00a0
:1043380070002000d0eb8800c0eb80000000e9008e
:10434800c0eb88000000060000017800d0eb800078
:10435800e50f500003003200e80f500017003a0044
:104368000b003700c0eb8000e20f500013003a004a
:1043780031ea210002007800a8f007000000e00000
:104388000e003a0030eb8800600020000a00370079
:10439800c0eb8000e40f500008003a0081ea2100d9
:1043a800020078009df007000000e00003003a00da
:1043b80020eb880090002000d0eb8800c0eb800044
:1043c8000000e800c0eb880000000600c0eb800099
:1043d8000000e900c0eb8800d1eb8000e68f5000b8
:1043e800050032001b00390069805000e10f5000c1
:1043f80018003e000c00370032eb8000ec0f510033
:1044080007003a0081eb210080d621008bf00700dd
:104418000000e00002003a0010002000b0eb880025
:104428005000200007003700e98f500007003a00cd
:1044380021eb8000c0622000808f500003003a000a
:104448000000eb00d0eb8800000006001000200000
:10445800d0eb880000000600889fbe00800178002d
:1044680001047800d0eb8000e60f50000300320012
:10447800e90f500020003a000f00370031eb8000b0
:1044880008804000ed0f500009003e0080d6210052
:1044980000804000080178008300780081f0070060
:1044a80030eb80000000440030eb88001200370039
:1044b800500020000f00370021eb800081044400e9
:1044c800c0622000808f540009003e000087280049
:1044d80000804000080178008300780057f007004a
:1044e8000000e00002003a0029eb880002003700d3
:1044f800a0002000d0eb88004f04be00000006009a
:1045080020002000d0eb88000000060030002000ca
:10451800d0eb88000000eb00c0eb8800c0cd210084
:1045280038f93700c3ea2100c2cd21006ef907002f
:1045380020d62100b1002000908f100002003a0020
:1045480020002000d0eb8800d0eb80003100200054
:10455800e20f500001003e00800078000100780062
:10456800000006001000050087c0bf000068a30017
:10457800fdff3200b011800087c0a9000000fb00d9
:104588000000060020022000c01188000000eb0097
:10459800801188003062a8009011880031e2a800dc
:1045a8003342a80087c0a9000000060087c0bf00ea
:1045b8004600de0061006000000006000000fb000d
:1045c800a01188000000000033c2bf000008a3004b
:1045d800fdff320000000600881f78000004780004
:1045e80001003700f5ff0700384078000004e000bc
:1045f800fcff3a004f04780000000600881f78008e
:10460800004478000042eb0030c6b300804f5400ed
:10461800070036000880fb00420620001100090050
:104628000280d8000043b000e4ff070014c0b300c4
:104638000880fb0042062000110009000280d80013
:104648000280b90000445400e94f540002003e00c3
:10465800e14f520006003a000880fb00a20020004b
:10466800110009000280d8000043b000d3ff070002
:104678000880fb00a2002000110009000280d80079
:104688008000fd006a08b900004054000043b000f3
:10469800caff07004f04780000000600889fbe008c
:1046a800800478004480de006f00600088be21002e
:1046b80068407800c1ff07006f8064006840780098
:1046c800beff07004f04be0000000600889fbe0022
:1046d800800478004c00de0088be21006840780025
:1046e800b6ff07004848de006f00600068407800a9
:1046f800b2ff07004448de006f00600068407800a1
:10470800aeff07006f80640068407800abff0700c9
:104718004f04be0000000600889fbe008a1f780074
:104728000004be004c08de006f0060008abe210055
:104738006a407800a1ff07004848de000100200019
:104748006f0060006a4078009cff07004448de0064
:10475800010020006f0060006a40780097ff0700a2
:104768004048de00010020006f0060006a407800c9
:1047780092ff07004449dd004c40de000000710054
:10478800cc48de006f0060006a4078008bff0700ad
:104798004849dd004840de0000007100c848de00de
:1047a8006f0060006a40780084ff07004c49dd0014
:1047b8004440de0000007100c448de006f00600065
:1047c8006a4078007dff07006f0464006a407c003f
:1047d8007aff07004f0578004f04be00000006006e
:1047e8008040780060c6b30080cf500017003c00be
:1047f8006640500080cf50000200340090cab300d9
:104808000f00370060c4b30080cf50000f003c0099
:104818006640500080cf50000200340090ccb300b6
:104828000700370090c3b30080cf500007003c005a
:104838006a40500080cf50000400340000cdb3001f
:1048480000c040000000fb0000000600000005005a
:104858006f406000e94f5000030034007043b0001f
:104868000000fb00000006000043b0000000fb0051
:104878000000060032c2bf000018a3000100320089
:084888003222a9000000060025
:020000040000fa
:10489000ac1e00001a00000082000000dc20600056
:1048a00021a82100ea21300022842200696f6900da
:1048b0006f2e6d00616e6100676572000000000080
:1048c000dc1c0000a000000080000000881e00002a
:1048d0002400000082000000706163006b616700cb
:1048e00065730000706163006b61670065007300b1
:1048f0006967730000636500727400006e616d008b
:1049000065006b00657900001a1f000002000000be
:1049100082000000ffff0000421e00004600000071
:1049200080000000f81b000008000000820000006a
:10493000494f49004f01000000000000101c00001a
:10494000cc00000080000000e81b00001000000008
:104950008200000030313200333435003637380001
:10496000394142004344450046000000121f000048
:1049700004000000800000001c1f00000200000076
:1049800082000000ffff0000e21d00006000000048
:1049900080000000fe1f00000200000082000000f6
:1049a000000000007c1d0000660000008200000086
:1049b000736865006c6c3a0064756d007073790003
:1049c0007320700061636b006167650020696f0090
:1049d000696f2e006d616e006167650072002f00c7
:1049e00066696c0065732f00494f49004f303000f5
:1049f00032332e00667000002f64610074612f0056
:104a00007379730074656d002f706100636b6100d2
:104a1000676573002e786d006c002f0066696c006e
:104a200065732f00494f49004f30300032332e005c
:104a3000696f69006f000000001f00000c0000009b
:104a400082000000686f7300743a3a0000000100b1
:104a50000000000036180000b602000080000000d0
:104a6000ec1a0000d2000000800000000c1f0000c3
:104a7000060000008200000073796e00633a0000b7
:104a8000000800003610000080000000c61e000074
:104a90001a00000080000000161f00000400000043
:104aa000820000000000000000000000be1b0000ab
:104ab0002a00000080000000001c00001000000020
:104ac00080000000e01e00001000000082000000d6
:104ad000ff420100000000001200fc002ed0360052
:104ae0000100000000000000f01e000010000000a7
:104af000800000001e1f0000020000008000000077
:044b000000000000b1
:020000040000fa
:104b0400889fbe008a9fbe008c1f78000006780034
:104b14000205be00800620000089b900e0ae210035
:104b2400020440000c00e00013003a001802900058
:104b340050002000980f100005003a00e00f5500c7
:104b4400e08f5d0002003a000c007800010037009d
:104b540010002000a80090006101b9000000eb00e3
:104b640004000100820620008000eb0008007800a9
:104b7400e8ee07007900370018007800e30f5000d2
:104b84003600320003003e00e10f50006f00360093
:104b940005003700e40f500062003200e60f5000b9
:104ba400f5ff3e006d00370048019000d8019000e9
:104bb400ec044400820f5500838f5d00210039000e
:104bc40002805400680040008c007800b6ee0700b4
:104bd40048009000d80090000006460000055500eb
:104be40081855d00080890009808900040049800b2
:104bf400510498001901be004014240041152400fa
:104c0400800f5100818f59000500320040f42400c8
:104c1400e1542400800f5100818f590002003a00b2
:104c240030002000320037006014240091c42400b6
:104c3400800f5100818f590044003a004000200049
:104c44002b00370002805400680040000a017800fd
:104c54008c00780094ee07002f0037004801900084
:104c6400d8019000820f5500838f5d002200390027
:104c7400e00f5500e08f5d0004003200a8009000b2
:104c8400180290000c0078000400010068019000f4
:104c9400f801900048029000d802900040f42400eb
:104ca400e1542400800f5100818f590008003a001c
:104cb400840f5500858f5d0024003a0050002000c9
:104cc400000c780038009000a80807002300370083
:104cd400040646000405550085855d00800020001b
:104ce4000100200040049800510498002000200096
:104cf400000c7800a0ff3700e00f5500e08f5d0046
:104d040005003200a8009000180290000a01be00bd
:104d14000c0078000400010048009000d8009000c6
:104d24000500370048009000d8009000800f55001f
:104d3400818f5d00050031000a0050008b8058000f
:104d44004004980051049800040037003800900093
:104d54008608070060002000000c78004f067800e9
:0c4d64004f05be004f04be00000006001a
:020000040000fa
:104d70000600fa00881f780028c08000e10f540068
:104d80000d00320003003900e20f54002a003a00ff
:104d90001d003700110020008201200003002000c8
:104da000e0812100d50607000004e0001e003a0063
:104db000100020001f00370088007800688057002e
:104dc000520807000000e0001b0032000ff89700b7
:104dd0000004e00014003a0052c1800063c180006a
:104de000e00f5100e08f59001100320000c0800038
:104df00088007800c10607000004e0000a003a00bd
:104e0000200020000b0037001100200068805700b0
:104e10003e0807000000e000070032000ff897008e
:104e20000004e000020032004000200001003700d2
:104e30003000200020c0880018c08000e10f54001e
:104e40000d00320003003900e20f540049003a001f
:104e50002f003700110020008201200003002000f5
:104e600060802100540607000004e0003d003a0085
:104e7000100020003e00370008017800e68057004f
:104e800068805700e60707000000e00039003200a4
:104e90000ff897000004e00032003a005fb8970076
:104ea000efb89700f80f5000e08f58002d003a003f
:104eb000d0c08000e1c080000080ea008180ea006c
:104ec00062802100b20f1000a28f180025003a0066
:104ed00092c08000a3c0800000002100800f51001c
:104ee000e08f59001f003e00e00f5100e08f590095
:104ef0001e00320088007800008020002e06070087
:104f00000004e00017003a002000200018003700dd
:104f100012002000e680570068805700c007070095
:104f20000000e000130032000ff897000004e000da
:104f30000c003a005fb99700efb99700208121007b
:104f4000b00f5100a08f590006003a0000802000e9
:104f50007107070062812100b20f5000a28f580034
:104f60000200320040002000010037003000200025
:104f700010c088004f0478000080fa00000006008e
:020000040000fa
:104f800070c121000048eb0081c0b30060c1210066
:104f9000014878000080eb008080eb0090e0880002
:104fa000a1e088000000eb0080e08800000006001f
:104fb000889fbe008a9fbe008c9fbe008e1f780017
:104fc00080067800010678005700370061c1210093
:104fd0001180fb000c047800800f560001003600a1
:104fe000000478007ec121001e80fb0089c12100e1
:104ff00009004000080178008d007800abed070043
:105000001e4f440062c12100124078000840500049
:105010000049780088864600080656000004e00033
:1050200041003a0080e080000000e0000300320010
:10503000e10f50003c003a000d00370082002000d4
:1050400081bf2100090078007eed07000000e0002c
:1050500039003a00004f780040ccb30061c1210014
:10506000804878001000200080e088002e00370083
:10507000cae08000dbe080000a03be000a0078007e
:10508000f007b2002c003a0000002b00f1ff2f00c7
:105090000a0040008b804800f26f250023002000aa
:1050a000820f5000838f580023003e0094e0800060
:1050b000a5e08000e10f4200e08f4a0003003200cb
:1050c000840f5500858f5d001b00390000c02f0044
:1050d0000000630087017800000178000204be0030
:1050e000840f5400858f5c00060032000800be006b
:1050f000060107000000e0000f00320098e0880081
:10510000a9e08800c2c121000a00be002c010700ee
:105110000000e00008003200004feb0040ccb3007c
:1051200062c12100004978000c00e000a7ff3a00ae
:1051300010002000010037000000eb004f0778004e
:105140004f06be004f05be004f04be000000060023
:1051500082e08000e10f510006003a0061c12100a9
:1051600040ccb300914f100002003a0002007800da
:0851700000000600000005002c
:020000040000fa
:105178008041780080bd2100e9cf51000f003a003e
:10518800104078007040600047c0210001003a00dc
:1051980007c0210080bd21009080fb00c408de000c
:1051a800e1c060000104a200c408dd0010417800dd
:1051b8000244a100014871002300370001c2b30076
:1051c80010c06000c7c0210001003a0087c021005c
:1051d80080bd21009080fb00c508de00e1c06000b2
:1051e8000104a200c508dd00104178000254a100a6
:1051f80001487100edcf510013003a0006df80002e
:1052080076009000060a9000960a900046019000e9
:105218000100200004005000858058000300200091
:10522800820f5000838f580002003600c60190009c
:105238001d0037007601900006089000960890003f
:10524800800151001800370006df800036589000b2
:1052580063406000e14f50000b00320056009000a0
:10526800e6009000060a9000960a90004601900019
:10527800040050008580580003002000820f500071
:10528800838f580002003600c60190002d003700b9
:1052980056019000e60190000608900096089000dc
:1052a8008001510027003700260b900096039800d4
:1052b8000e003700b60890003608900010409000a5
:1052c80062c0b3000440bc0066014100e1007900ff
:1052d80091039800050037003609900006089000f1
:1052e8009608900000014100920398000040eb00ee
:1052f80090439800f33fb20000c02f00970b600066
:10530800978b710001df8000314090004300de0080
:10531800610060004e00dd0017e0a100970b7000ef
:10532800314090004200de00610060004b00dd006b
:1053380017b0a100970b700000002800970b7000b1
:10534800000006003658900063406000e14f5000ae
:08535800e1ff3a00d7ff370026
:020000040000fa
:105360008f87e800889fbe008a9fbe008c9fbe008a
:105370008e1f78000146780082457800030478008b
:1053800084047800050578008606780007477800d1
:1053900062002000b1bc2100914f500054003a003f
:1053a000f0de800001f0200001006000120020000b
:1053b00001402000810f50004d003a00b0de800017
:1053c00030409000020120000018a3004800320085
:1053d000ebcf55001f003a00a2de8000010037002d
:1053e000120178000200e0004000320062409000ac
:1053f0000080fb00890f5000f9ff3a002200900066
:105400000000e00039003200a000900004003700e6
:10541000314090000018a300340032009100780061
:105420000100e000faff3a0092009000010037000e
:10543000910078000100e0002c0032002140900033
:105440000080fb00880f5000f9ff3a00210198000e
:1054500008003700e1cf550006003a000300e000e5
:1054600004003a00e24f560002003e00044078007b
:1054700097040700f1dd80008c4878009b4098007d
:10548000a84098004840de00b0409800c94098000d
:105490004848de00d0409800ea4098004850de00be
:1054a000f0409800b0de80002fe997001258980075
:1054b0000e04e00006003a000a0278008d01780030
:1054c00082002000b0de80008e0307000500370058
:1054d0000a0278008d01780082002000b0de800092
:1054e000d80307000001eb00010037003200200064
:1054f000020078004f0778004f06be004f05be003f
:0c5500004f04be002f00b10000000600a8
:020000040000fa
:10550c0022042400023b88000181fb00a2028800d7
:10551c000081eb000208bb000500fc0050052000d8
:10552c00303b8800a00a2000303b880061e7a800cf
:10553c0000000000000000006147e200feff3500a3
:10554c0061c7a90061c7bf000080fb004500de00f9
:10555c000000a2006100600000000600340024007e
:10556c00043b8800a10288000208bb000388bb0032
:10557c000500fc0050052000303b8800a00a2000ec
:10558c00303b880061e7a80000000000000000002c
:10559c006147e200feff350061c7a90061c7bf008b
:1055ac000080fb004500de000000a20061006000ee
:1055bc00000006006022b80013002400033b8800a2
:1055cc00a1028800800078008001eb0006f02f001b
:1055dc00070c20001280fb00040263000002720022
:1055ec00124090004800dd00f40fb200000272007f
:1055fc00224090000080fb008502630080827200d4
:10560c00e38141008408bb008588bb008180e800f1
:10561c0063014100878f5100eeff3a000500fc004a
:10562c0050052000303b8800a00a2000303b880049
:10563c0061e7a80000000000000000006147e200e4
:10564c00feff350061c7a90061c7bf000080fb00e9
:10565c004500de000000a2006100600000000600b2
:10566c00a10288009081ba001001ba000200be00ad
:10567c0000000600990607000000eb00a0f8880067
:10568c0090f8880000000600889fbe009006070076
:10569c0080047800880607000000e0001b00320040
:1056ac00a0f880000000e00003003200e20f500080
:1056bc0017003e00060037007f0607000000e000e0
:1056cc0013003200560607005c0607000a0037007c
:1056dc0021f6070000047800e10f400002003a00b8
:1056ec005d0607000a003700f0010700e10f5400c7
:1056fc0003003a002a0307002000200003003700b3
:10570c000800e00002003a0010002000a0f8880019
:10571c000900e00007003200e0ed210010007800e5
:10572c006100600003003a0090f880000000e00087
:10573c0001003200100020004f04be0000000600e3
:10574c0059063700b0f92f0000804000eb0f5000d5
:10575c0009003e00120020008010dd0010f1200036
:10576c000080600006003a000158a30003003a00d4
:10577c000178a30004003a000000050090f88800ae
:10578c00020078000000060092f888000200780001
:04579c000000060003
:020000040000fa
:1057a00000427800b1de80008082fb00510890004a
:1057b0004800de0063006000850f500003003a00df
:1057c000314090000018a30035003200d0bd210008
:1057d0000048eb00a3de800027003700510890004e
:1057e0004800de0063006000850f50001f003a0093
:1057f000e24f520011003200e34f52000600320027
:105800000404e00019003a00314090000018a300a1
:1058100016003a0022003700314090000018a30023
:105820001f003200310090000000e0000f003a003d
:1058300021009000b00098000c003700314090002b
:105840000018a30009003a00314090000048a3006e
:1058500006003a00d0bd21001048e800c2bd21007a
:1058600010437800924f53000c003e0091007800e6
:1058700007003700930178000300e0000a003200bf
:10588000230090000000e000faff3200a00090002a
:105890000100e000d1ff3a00f6ff37001049780020
:0c58a00001df880010000500000005007a
:020000040000fa
:1058ac00b2f8800083bd21001364a10030f78000a2
:1058bc000038a300380032000018a3000e0032009c
:1058cc00c240900000ee210090cf100022003a0060
:1058dc00d240900010ee210090cf10001e003a0034
:1058ec00e240900020ee210090cf10001a003a0008
:1058fc001364a0001800370003f780008248900062
:10590c008180fb00124890004800dd00010070000f
:10591c00808f510008003a00224890000080fb0064
:10592c00b2489000c808dd008080700020ee210095
:10593c00908f100006003200e18f410006003a0003
:10594c0020ee21008080eb00908f100002003a00c6
:10595c0080bd21001064a00080bd210001c4b300f3
:10596c0010c060000c00320050ee2100d1bc2100b0
:10597c00904878001100200030f780000028a30028
:10598c000600320041ee210080bc21001148780055
:10599c0011002000010037008000eb0001007800ae
:0459ac0000000600f1
:020000040000fa
:1059b000889fbe008a9fbe008c9fbe008e1f78000d
:1059c0000002780081067800020778008005eb006d
:1059d000a08321002c882100238421001000e000f6
:1059e00022003a006805200008dcb900aa832100e3
:1059f0001000200000357c000204200084007800a4
:105a0000030078004beb0700000520000800400071
:105a10008000eb00013578000880e800013578004f
:105a200020052000080040000d3578004805b00032
:105a30000e357c0040f8800051f88000480add00f7
:105a4000c802de00850272004802dd006159b9001b
:105a5000021e72000396720061004000e080480060
:105a600040f8880051f88800070037008b05e800ef
:105a70006305b0006c05b0006005b000e88f55000c
:105a8000d6ff3a008085eb000b0078004f077800c6
:105a90004f06be004f05be004f04be0000000600ca
:020000040000fa
:105aa0000000eb0030f4880020f2880000000600bf
:105ab0000003780032f4800023f280008002eb00c3
:105ac00067e421002b00370065427b00e18f510025
:105ad0000f00320003003900e28f510024003a0029
:105ae00010003700e0e92800604079000201e8007a
:105af000804f52001d003a008001eb00ec0f510076
:105b00001b003a000001eb002300200018003700c2
:105b1000ea4f520015003a000001eb0082017800c4
:105b200013003700ed4f520006003a0032f48800af
:105b300023f288000040eb008073790060e42100cc
:105b400000000600e0032000800f510003003c002d
:105b5000847379000201e8000500370032f4880000
:105b600023f28800d0f88000000006001300200017
:105b70008502e800818f5200d3ff3a0032f488009a
:0c5b800023f2880010f2800000000600f4
:020000040000fa
:105b8c000800fa00881f78000042780003047800af
:105b9c00b3f8800030f780000048a30029003200e1
:105bac000018a3002700320000ee210010437800fb
:105bbc00844f530023003a0010ee210090427800ed
:105bcc0081cf52001f003a0020ee210010427800d5
