:100000000C9434000C9451000C9451000C94510049
:100010000C9451000C94F7000C94B0000C94510017
:100020000C9451000C9451000C9451000C9451000C
:100030000C9491010C9451000C9451000C945100BB
:100040000C9451000C9451000C9451000C945100EC
:100050000C9451000C9451000C9451000C945100DC
:100060000C9451000C94510011241FBECFEFD8E026
:10007000DEBFCDBF11E0A0E0B1E0E6E0F7E002C0F6
:1000800005900D92AA35B107D9F711E0AAE5B1E0C4
:1000900001C01D92A03BB107E1F70E9477020C94CA
:1000A00081030C94000020918701309188012F5F1B
:1000B0003F4F30938801209387012817390750F06C
:1000C00085B191E0892785B9109288011092870146
:1000D00081E0089580E00895CF93DF931F92CDB71C
:1000E000DEB780915B0181111EC08FB78983F894C0
:1000F0002A9810928500109284008FEF9FEF9093C2
:100100008B0080938A0080E18093800082E080935E
:10011000810080916F00846080936F0081E0809304
:100120005B0189818FBF0F90DF91CF910895CF93AD
:10013000DF931F92CDB7DEB78FB78983F894EFE6D0
:10014000F0E080818B7F808310928000109281008C
:1001500010925B0189818FBF0F90DF91CF9108953D
:100160001F920F920FB60F9211242F933F934F932C
:100170005F936F937F938F939F93AF93BF93EF930F
:10018000FF9380915B01811104C080915A01882303
:1001900041F0809130019091310190930D01809355
:1001A0000C0180915D01823021F48091010188234E
:1001B00021F080915A01882321F00E946C00109256
:1001C0005A0181E08093010110925C01FF91EF914F
:1001D000BF91AF919F918F917F916F915F914F915F
:1001E0003F912F910F900FBE0F901F9018951F9267
:1001F0000F920FB60F9211241F932F933F934F939B
:100200005F936F937F938F939F93AF93BF93CF939E
:10021000DF93EF93FF93409184005091850080918C
:100220005D01823071F480915B0181110E94970021
:10023000489B02C02A9A01C02A98A89510920101F1
:100240005CC0C9B1A0915E01AC27D1E0B1E0BA01B8
:10025000605273408B2F8A23E9F18B2F8095A8235E
:100260002B2F2C238D2F90E0FC01EE0FFF1FE15A66
:10027000FE4F222319F0518340832CC0208131810D
:10028000FB01E21BF30B9F012934FDE03F0738F52A
:10029000283EE3E03E0718F1A89510920101FC0109
:1002A000E256FE4F1081143618F410811F5F108340
:1002B000FC01E457FE4F1082FC01EE0FFF1FEE5FC2
:1002C000FE4F808191810296821B930B059710F05F
:1002D00031832083AA2349F0DE5FBB0FBBCF80911F
:1002E0005C018F5F80935C01F5CF80915B01811190
:1002F00002C00E946C00C0935E01FF91EF91DF91FC
:10030000CF91BF91AF919F918F917F916F915F91AD
:100310004F913F912F911F910F900FBE0F901F9003
:10032000189578941F920F920FB60F9211242F9365
:100330003F938F939F93EF93FF93E0910001F0E041
:10034000E457FE4F8081893268F180910001F89472
:1003500020918A0030918B00E0910001F0E0EE0FD7
:10036000FF1F883098F4EA5DFE4F80819181820FF3
:10037000931F90938B0080938A0078948091000162
:100380008530A9F581E08093010131C0EE5FFE4F19
:1003900080819181820F931F90938B0080938A00BC
:1003A000789425C0F89420918A0030918B00E091D8
:1003B0000001F0E0EE0FFF1FEE5FFE4F80819181A4
:1003C000820F931F90938B0080938A007894E09122
:1003D0000001F0E0E256FE4F8081843640F0E0916B
:1003E0000001F0E0E457FE4F80818F5F80838091B1
:1003F00000018F5F80930001823110F010920001A4
:10040000FF91EF919F918F913F912F910F900FBE90
:100410000F901F901895882321F0893020F4E82F41
:1004200003C0E1E001C0E8E0EE0FEF5FF0E0EE0FA7
:10043000FF1FEE5FFE4F8081918120813181821705
:100440009307C9F79C01205E3C4FC9010895809134
:100450005D01811122C052985A9A519A599885E3A8
:100460008A95F1F7000089B182FB882780F991E035
:100470008927599A95E39A95F1F700004A998F5F79
:10048000599895E39A95F1F700004A9903C0823094
:1004900009F401C081E080935D011AB88BB18FEF40
:1004A0008BB980915D01823019F481E080936D00F9
:1004B00080915D01813019F48FEF80936D00809100
:1004C0006800846080936800229A88E10FB6F894EF
:1004D00080936000109260000FBEA895809160002C
:1004E00088618093600084E4809360000895CF93D6
:1004F000DF93CDB7DEB76C970FB6F894DEBF0FBEB3
:10050000CDBF04B600FC0BC004B601FC08C004B6A5
:1005100002FE05C014BE81E080935A0101C014BEE2
:100520000E942702209A219A229A14BC85E085BD58
:1005300016BC17BC18BC10926E007894299A809152
:100540000101882359F08CE390E00E94530087E278
:100550009FE00197F1F700C00000F1CF80915D01AD
:10056000823009F465C0F12C02EE14E0F11004C0F1
:1005700080910101882319F08CE390E012C08091F2
:100580000C0190910D01A0E0B0E0885E9340A109BC
:10059000B109B695A79597958795F801E81BF90BD2
:1005A000CF010E94530080915C01882329F1809142
:1005B0008301909184018133F5E79F0738F0109211
:1005C00084011092830110925C0116C001969093F1
:1005D00084018093830180915C01823068F01092E5
:1005E0005C01109284011092830110928601109296
:1005F0008501FF24F39402C0FF2099F080918501CA
:1006000090918601893823E1920730F0109286019B
:1006100010928501F12C05C001969093860180937C
:10062000850187ED9EE00197F1F700C000009ECFA5
:100630003CE1E32E8E010F5F1F4F42E0D42E54E0C9
:10064000C52EFF24F39463E0B62E75E0A72E8091AB
:100650000101882329F08CE390E00E9453004AC0F6
:10066000F8012E2D11922A95E9F7DA82CB82FC82CD
:10067000BD82FE82AF828091890190918A010196AC
:1006800090938A018093890120918B01F801E20FF8
:10069000F11D2081223081F028F4222349F02130FD
:1006A00001F50EC02430A9F080F02530D1F416C039
:1006B0008C3D9540F8F010C0883E9340D8F003C0C0
:1006C000883C9105B8F028980CC08039914090F092
:1006D00003C08E3E924070F0289A03C010928B01A6
:1006E00009C010928A011092890180918B018F5F5D
:1006F00080938B0187E29FE00197F1F700C0000033
:06070000A6CFF894FFCF24
:100706001101200398082003980820037805200388
:100716009808200306092003980820039808200358
:1007260098082003085220039808200398082003FD
:10073600E8032003980820030609200398082003ED
:100746009808200398082003085241726475505097
:0A0756004D76322E332E31360000AE
:00000001FF
