:1000000090C00000AAC00000A8C00000A6C0000068
:10001000A4C00000A2C00000A0C000009EC000005C
:100020009CC0000037C1000098C000003EC6000020
:10003000E3C60000E4C0000090C00000DDC1000085
:100040008CC000008AC0000088C0000086C000008C
:1000500084C0000082C0000080C00000F2C3000025
:100060007CC000007AC0000078C0000076C00000AC
:1000700074C0000024034100720064007500690030
:100080006E006F0020004D006500670061002000D9
:1000900032003500360030000000320341007200AB
:1000A0006400750069006E006F0020002800770072
:1000B000770077002E00610072006400750069000F
:1000C0006E006F002E00630063002900000004032F
:1000D000090409023E00020100C0C8090400000131
:1000E0000202010005240001100424020605240672
:1000F0000001070582030800FF09040100020A004D
:1001000000000705040240000107058302400001CA
:100110001201100102000008412310000100010239
:10012000DC0111241FBECFEFD4E0DEBFCDBF11E054
:10013000A0E0B1E0EEE2F4E102C005900D92A2373A
:10014000B107D9F712E0A2E7B1E001C01D92AA3DC4
:10015000B107E1F755D20C94150A52CF429A81E0CB
:100160008093760158980895429810927601589A93
:100170000895CF93DF931F92CDB7DEB780917301BF
:1001800081111FC08FB78983F8944698109285001B
:10019000109284008FEF9FEF9093890080938800E6
:1001A00080E48093800082E08093810080916F00E2
:1001B000826080936F0081E0809373015D988981F4
:1001C0008FBF0F90DF91CF910895CF93DF931F9250
:1001D000CDB7DEB78FB78983F894EFE6F0E0808182
:1001E0008D7F8083109280001092810010927301A5
:1001F0005D9A89818FBF0F90DF91CF9108951F92F3
:100200000F920FB60F9211242F933F934F935F934A
:100210006F937F938F939F93AF93BF93EF93FF93CE
:1002200080917301811104C080917201882341F093
:100230008091460190914701909323018093220180
:1002400080917501823021F480911701882321F07B
:1002500080917201882319F08CDF109272018091D5
:100260001701811101C05C9881E080931701109201
:100270007401FF91EF91BF91AF919F918F917F9109
:100280006F915F914F913F912F910F900FBE0F9003
:100290001F9018951F920F920FB60F9211241F9363
:1002A0002F933F934F935F936F937F938F939F937E
:1002B000AF93BF93CF93DF93EF93FF93409184006D
:1002C00050918500809175018230C1F48091730155
:1002D00081117BDF189B02C0469A01C04698A89501
:1002E00010921701809177018F5F80937701813899
:1002F00008F46EC04D9A109277016AC0C3B1A09104
:100300007801AC27D1E0B1E0BA01605273408B2F85
:100310008A23E9F18B2F8095A8232B2F2C238D2F57
:1003200090E0FC01EE0FFF1FE758FE4F222319F06B
:10033000518340832CC020813181FB01E21BF30BF0
:100340009F012934FDE03F0738F5283EE3E03E07F2
:1003500018F1A89510921701FC01EE54FE4F108180
:10036000143618F410811F5F1083FC01E056FE4F15
:100370001082FC01EE0FFF1FE85EFE4F808191812D
:100380000296821B930B059710F031832083AA23DA
:1003900049F0DE5FBB0FBBCF809174018F5F80930C
:1003A0007401F5CF80917301811101C0E2DE80916B
:1003B00077018F5F80937701811108C04C9A8091FB
:1003C0007401853618F08FED80937701C093780122
:1003D000FF91EF91DF91CF91BF91AF919F918F915D
:1003E0007F916F915F914F913F912F911F910F904E
:1003F0000FBE0F901F90189578941F920F920FB612
:100400000F9211242F933F938F939F93EF93FF931A
:10041000E0911601F0E0E056FE4F8081893270F1E4
:1004200080911601F8942091880030918900E09124
:100430001601F0E0EE0FFF1F883098F4E45CFE4FE9
:1004400080819181820F931F90938900809388000F
:10045000789480911601853079F481E080931701BA
:100460000BC0E85EFE4F80819181820F931F9093B5
:1004700089008093880078945C9825C0F894209136
:10048000880030918900E0911601F0E0EE0FFF1F27
:10049000E85EFE4F80819181820F931F90938900C7
:1004A000809388007894E0911601F0E0EE54FE4FBE
:1004B0008081843640F0E0911601F0E0E056FE4F76
:1004C00080818F5F8083809116018F5F80931601FA
:1004D000823118F0109216014D9AFF91EF919F9181
:1004E0008F913F912F910F900FBE0F901F901895F5
:1004F00004B600FC0BC004B601FC08C004B602FE42
:1005000005C014BE81E08093720101C014BE3A9A06
:10051000549A559A5C9A5D9A80917501811122C016
:1005200022982A9A219A299885E38A95F1F7000062
:1005300083B182FB882780F991E08927299A95E386
:100540009A95F1F700001A998F5F299895E39A958B
:10055000F1F700001A9903C0823009F401C081E06C
:100560008093750114B885B18FEF85B9509A809149
:100570007601882311F0589801C0589A809175012E
:10058000823019F481E080936B0080917501813095
:1005900019F48FEF80936B008091680081608093E5
:1005A00068003E9A88E10FB6F8948093600010923C
:1005B00060000FBEA8958091600088618093600004
:1005C00084E480936000089587E690E09093CD00E6
:1005D0008093CC0086E08093CA001092C80088E126
:1005E0008093C900539A5A9A8AB180638AB98BB1B1
:1005F00080638BB94FD384E085BD5F9A579A089585
:1006000077DFE2DF2FB7F89489E492E09093CA0293
:100610008093C9029093CC028093CB022FBF2FB757
:10062000F89484EC91E09093450280934402909377
:100630004702809346022FBF7894C9E4D2E08C0130
:1006400033E0E32E9FB7F8948091CD029FBF8038AE
:1006500011F180E091E09CD697FD1DC0E091C902A8
:10066000F091CA0280838091C9029091CA020196DA
:100670009093CA028093C902895C924021F4D0937E
:10068000CA02C093C9029FB7F8948091CD028F5FD0
:100690008093CD029FBF8FB7F894F09048028FBF30
:1006A000A89904C080E68F1508F03FC0A89A8091F1
:1006B0004802882301F15D98E0929D011CC0E09101
:1006C0004602F09147026191F0934702E09346029F
:1006D000E454F24021F410934702009346029FB77E
:1006E000F894809148028150809348029FBF80E037
:1006F00091E0F2D5FA94F110E2CF80919D01882328
:1007000041F080919D01815080939D01811101C034
:100710005D9A80919E01882341F080919E018150D5
:1007200080939E01811101C05C9A9FB7F8948091DB
:10073000CD029FBF882309F1E091CB02F091CC025A
:100740009191F093CC02E093CB02E95CF24021F46A
:10075000D093CC02C093CB022FB7F8948091CD02F6
:1007600081508093CD022FBF8091C80085FFFCCFC0
:100770009093CE005C98E0929E0180E091E0FAD5E3
:10078000E1D460CF80E091E05AC580E091E0ECC414
:100790001F93CF93DF93EC01EC89E150E23028F412
:1007A000F0E0E159FE4F108101C010E08B898230EA
:1007B00009F418608D89873031F0883031F0863047
:1007C00029F4126003C0146001C016601092C900C1
:1007D0001092C8001092CA002F85388949895A8919
:1007E000211581EE38074105510571F0CA01B901A3
:1007F000969587957795679560587B47814E9F4F73
:10080000F2D52150310902C020E130E03093CD0013
:100810002093CC001093CA008F859889A989BA8942
:100820008115914EA105B10511F480E001C082E06F
:100830008093C80088E98093C900DF91CF911F9110
:1008400008951F920F920FB60F9211242F938F933A
:100850009F93EF93FF938091CE009EB39430F1F479
:10086000E0914402F09145028083E0914402F091CE
:100870004502CF010196909345028093440284542F
:10088000924021F484EC91E0928381839FB7F894A5
:10089000809148028F5F809348029FBFFF91EF9144
:1008A0009F918F912F910F900FBE0F901F901895D1
:1008B000FC01858580FF02C05F9808955F9A0895C6
:1008C000292F33272230310539F02330310549F003
:1008D0002130310521F128C0EEE3F0E082ED90E017
:1008E00027C099278130910561F08230910581F010
:1008F000892BD1F4EEECF0E0E491F0E08EEC90E0A6
:1009000017C0EAE9F0E0E491F0E08AE990E010C075
:10091000E4E7F0E0E491F0E084E790E009C0E2E190
:10092000F0E080E191E004C0E0E0F0E080E090E001
:10093000DA018D939C93CF01089528E030E040E0E8
:1009400003C04F5F220F331F28173907D0F3842FBE
:100950008295807F08958093E900EBEEF0E080813E
:1009600081608083EDEEF0E010826093EC004083C4
:100970008091EE00881F8827881F08951092F40048
:1009800080E08093E9001092F0001092E80010924D
:10099000ED009091EB009E7F9093EB008F5F853090
:1009A00081F708958091D20287FD05C08091E8000B
:1009B00080FF0DC010C08091E80082FD04C08EB39E
:1009C0008111F9CF08958091E8008B7707C08EB32D
:1009D0008111ECCF08958091E8008E778093E80034
:1009E000089585E69091EC0090FF05C09091E80095
:1009F00090FF05C01BC09091E80092FD17C09EB308
:100A00009923B1F09EB39530A9F09091EB0095FD3C
:100A100013C09091E10092FFE5CF9091E1009B7FA0
:100A20009093E1008150F1F684E0089580E008950C
:100A300082E0089583E0089581E008952091D8022E
:100A40003091D9022617370748F06115710539F43E
:100A50002091E8002E772093E80001C0B901FC0145
:100A600090E029C08091E80083FD37C08091E800C4
:100A700082FD2DC08EB3882391F18EB3853089F12C
:100A80008091E80080FF17C08091F20006C091912C
:100A90009093F100615071098F5F6115710511F03C
:100AA0008830A8F391E0883009F090E08091E80068
:100AB0008E778093E80061157105A1F69111D2CF70
:100AC00006C08EB3882359F08EB3853051F08091E3
:100AD000E80082FFF6CF80E0089581E0089582E08B
:100AE000089583E008952091D8023091D902261705
:100AF000370748F06115710539F42091E8002E7729
:100B00002093E80001C0B9019C0190E02CC08091C5
:100B1000E80083FD3AC08091E80082FD30C08EB3CA
:100B20008823A9F18EB38530A1F18091E80080FF80
:100B30001AC08091F20009C0F9012F5F3F4FE49184
:100B4000E093F100615071098F5F6115710511F03B
:100B5000883090F391E0883009F090E08091E800CF
:100B60008E778093E8006115710589F69111CFCFDA
:100B700006C08EB3882359F08EB3853051F0809132
:100B8000E80082FFF6CF80E0089581E0089582E0DA
:100B9000089583E008956115710529F42091E80016
:100BA0002B772093E8009C0121C08091E80083FD11
:100BB0002BC08EB3882371F18EB3853039F18091CB
:100BC000E80082FFF2CFF90107C08091F100819324
:100BD0009F016150710929F09F018091F2008111FC
:100BE000F4CF8091E8008B778093E8006115710560
:100BF000E1F68091E80080FD0BC08EB3882351F0B0
:100C00008EB38530B1F702C081E0089583E0089586
:100C100080E0089582E0089542D044D01EBA109238
:100C2000D0021092CF021092CE0284E089BD89B525
:100C3000826089BD09B400FEFDCF8091D800982F55
:100C40009F779093D80080688093D800809163004C
:100C50008E7F809363008091D8008F7D8093D80031
:100C60008091E0008E7F8093E0008091E1008E7F94
:100C70008093E1008091E20081608093E2008091A6
:100C8000E100877F8093E1008091E200886080939B
:100C9000E2000895C1DF81E08093D10208951092AF
:100CA000E20008951092E10008951F920F920FB68E
:100CB0000F9211242F933F934F935F936F937F93E2
:100CC0008F939F93AF93BF93EF93FF938091E10036
:100CD00080FF1BC08091E20080FF17C08091E1007F
:100CE0008E7F8093E1008091E2008E7F8093E2000E
:100CF0008091E20080618093E2008091D800806260
:100D00008093D80019BC1EBA2FDA8091E10084FFCD
:100D100029C08091E20084FF25C084E089BD89B5A7
:100D2000826089BD09B400FEFDCF8091D8008F7D1F
:100D30008093D8008091E1008F7E8093E1008091C4
:100D4000E2008F7E8093E2008091E20081608093D8
:100D5000E2008091D002882311F084E001C081E09C
:100D60008EBBFCD98091E10083FF27C08091E20017
:100D700083FF23C08091E100877F8093E10082E0C0
:100D80008EBB1092D0028091E1008E7F8093E100B3
:100D90008091E2008E7F8093E2008091E20080618A
:100DA0008093E200EBDD42E060E080E0D4DD809102
:100DB000F00088608093F000C4D18091E10082FF50
:100DC0000AC08091E20082FF06C08091E1008B7F23
:100DD0008093E100B6D1FF91EF91BF91AF919F91C8
:100DE0008F917F916F915F914F913F912F910F90D4
:100DF0000FBE0F901F9018951F920F920FB60F9273
:100E00001124EF92FF920F931F932F933F934F93D1
:100E10005F936F937F938F939F93AF93BF93EF9362
:100E2000FF93CF93DF931F92CDB7DEB789EEE82E05
:100E3000F12CF70180818770108200EF10E0F8013B
:100E40009081977F90837894898322D0F894F701DA
:100E50001082F8019081986090838981F7018083E6
:100E60000F90DF91CF91FF91EF91BF91AF919F9143
:100E70008F917F916F915F914F913F912F911F9132
:100E80000F91FF90EF900F900FBE0F901F9018954D
:100E90000F931F93CF93DF93CDB7DEB7AC970FB609
:100EA000F894DEBF0FBECDBFE2EDF2E08091F1001D
:100EB000819322E0EA3DF207C9F78091D202909136
:100EC000D302953009F484C038F49130B1F170F058
:100ED000933009F029C131C0983009F4EDC0993040
:100EE00009F4FCC0963009F01FC194C0803821F08D
:100EF000823809F019C108C08091CE029091CF02CA
:100F0000992389F082600FC08091D6029091D70218
:100F1000877099278093E9008091EB0085FB8827F3
:100F200080F91092E9009091E800977F9093E80093
:100F30008093F1001092F100CAC0882319F082302A
:100F400009F0F2C08F7121F0823009F0DEC00BC0D1
:100F50008091D402813009F0D8C0933009F080E04C
:100F60008093CF022FC08091D40281112BC0809139
:100F7000D6029091D70287709927009709F4C5C0CF
:100F80008093E9002091EB0020FFBFC02091D302A5
:100F9000233021F48091EB00806212C09091EB002D
:100FA00090619093EB0021E030E001C0220F8A9520
:100FB000EAF72093EA001092EA008091EB00886043
:100FC0008093EB001092E9008091E800877F82C057
:100FD0008111AAC00091D4021091D5028091E8003D
:100FE000877F8093E800DEDC04C08EB3882309F499
:100FF0008CC08091E80080FFF8CFC8018F779927D7
:10100000009711F023E001C022E02EBB806880939E
:10101000E3007BC08058823008F086C08091D40203
:101020009091D5028C3D23E0920779F583E08A8385
:101030008AE289833FB7F894DE01139680E09EE050
:1010400041E2E92FF0E040935700E49180FF03C0B4
:10105000E295EF709F5FEF702E2F205D2A3308F02E
:10106000295F2C9311961C92119712968F5F8431F1
:1010700041F73FBF8091E800877F8093E8006AE2F4
:1010800070E0CE010196DADC11C0AE01455D5F4F24
:101090006091D60215DC0097C1F12091E800277F0E
:1010A0002093E800BC018BA59CA51DDD8091E80084
:1010B0008B778093E80029C08038B1F58091E800F3
:1010C000877F8093E8008091D0028093F100809127
:1010D000E8008E778093E80065DC17C0811124C09A
:1010E0009091D402923088F48091E800877F8093B9
:1010F000E8009093D00256DC8091D002882311F052
:1011000084E001C083E08EBB3DDB8091E80083FF7B
:101110000DC08091EB0080628093EB008091E8002D
:10112000877F8093E80002C030DBEFCFAC960FB62C
:10113000F894DEBF0FBECDBFDF91CF911F910F910D
:1011400008950895CF938EB3882359F0C091E90094
:10115000C7701092E9008091E80083FD99DEC0938A
:10116000E900CF9108950895CF93DF93EC0180912A
:10117000E80083FF61C0888190E02091D602309121
:10118000D7022817390709F057C08091D30281325E
:1011900059F020F4803209F04FC019C0823269F151
:1011A000833209F049C038C08091D202813A09F0F7
:1011B00043C08091E800877F8093E80067E070E09B
:1011C000CE010F963BDC8091E8008B7713C08091B5
:1011D000D202813289F58091E800877F8093E80010
:1011E00067E070E0CE010F96D6DCCE01D1DA8091B7
:1011F000E8008E778093E8001FC08091D202813290
:10120000D9F48091E800877F8093E8008091D40230
:101210008D87CE014DDB0DC08091D202813261F409
:101220008091E800877F8093E8006091D402CE012E
:101230009ADFDF91CF91B6CBDF91CF9108950F93D5
:101240001F93CF93DF93EC010D96FC0189E0DF0142
:101250001D928A95E9F72A813B818C81882311F0C0
:1012600014E001C010E00981C90167DB412F482B60
:10127000426061E8802F6FDB882341F12E813F813E
:101280008885882311F014E001C010E00D81C901A8
:1012900054DB412F482B426060E8802F5CDB8823C1
:1012A000A9F02A853B858C85882311F014E001C0C4
:1012B00010E0C985C90141DB412F482B426061EC38
:1012C0008C2FDF91CF911F910F9145CB80E0DF9163
:1012D000CF911F910F910895CF93C62F2EB3243035
:1012E000E9F4FC014785508961897289452B462BB9
:1012F000472BA1F081818093E9008091E80085FF70
:1013000004C0C093F10080E00AC08091E8008E77AD
:101310008093E80066DB8823A1F301C082E0CF91CF
:1013200008952EB3243021F5FC0147855089618949
:101330007289452B462B472BD9F081818093E90098
:101340008091F200811102C080E008959091E80040
:101350008091E8008E778093E80095FDF5CF41DB22
:10136000811107C09091E8009E779093E80008955E
:1013700082E008952EB3243051F4FC014785508952
:1013800061897289452B462B472B09F0CACF0895F6
:101390002EB3243019F02FEF3FEF23C0FC01478517
:1013A000508961897289452B462B472BA1F3858192
:1013B0008093E9008091E80082FFEDCF8091F200F8
:1013C000882321F02091F10030E002C02FEF3FEFA1
:1013D0008091F200811105C08091E8008B778093A5
:1013E000E800C9010895A1E21A2EAA1BBB1BFD014A
:1013F0000DC0AA1FBB1FEE1FFF1FA217B307E407F4
:10140000F50720F0A21BB30BE40BF50B661F771F4B
:10141000881F991F1A9469F760957095809590952B
:0E1420009B01AC01BD01CF010895F894FFCFF0
:10142E00000340000004400000020800000000001D
:10143E000000000000001101200398082003980806
:10144E002003780520039808200306092003980836
:10145E0020039808200398082003085220039808B8
:10146E00200398082003E8032003980820030609A8
:10147E002003980820039808200398082003085298
:10148E004172647550504D76322E332E3136003007
:02149E0020002C
:00000001FF
